:020000040000fa
:080000000001040000000000f3
:020000040000fa
:100200000f00220080792200000188000000000019
:10021000050007000c000700a4ed0200000000002c
:100220000040da000000fe004440a9000033230033
:100230000000e0000300320020002000a001880040
:100240004440a800000006004030220011002000b9
:100250001600370062004000e080480091018800ed
:100260009001ba0062004000e080480091018800df
:100270009002ba0062004000e08048000002eb00fb
:100280006028e10005003a008301e900070033001f
:10029000038009000059eb00040037006128e100e9
:1002a000010032000082eb00050007009101880088
:1002b0001001ba000200e000e6ff3a00000005006d
:1002c000910188008002780062004000e0804800d0
:1002d0003559ba008301e900080032002559ba00f7
:1002e0008301e900050032000400e000f4ff320061
:1002f00015d9ba008301e900f1ff3a0000000600b9
:10030000889fbe008a9fbe00010578000100e000c2
:100310000400350008003c000000e000200032002e
:100320000500370060001000e080180002003b006c
:1003300001f02c001a0037000004be006011b80064
:100340006b0920000982cf00020039000882cf002b
:100350000441b000694252000e00320008003b0028
:1003600082817100610164008904d1000884d30096
:100370008b05e8000442e800f9ff3a000500370069
:100380000804440089844c008b05e9000442e9001c
:10039000fbff3a003a0107000af0a70001f0a000b5
:1003a0004f05be004f04be0000000600889fbe003f
:1003b0008a9fbe008c1f7800570107005e01330042
:1003c00003866c006450e1002e0032006420e100de
:1003d000330032006150e1002f0032006120e10063
:1003e0003100320085855500eb07b0000900200080
:1003f00008042000050037000804440089844c00ec
:100400000a0031000603430087834b0000015300bc
:1004100081815b00f8ff33000203be000800a000ea
:100420000804440089844c00f6ff3900c639dd0019
:100430008301730001003200130020008904d10001
:100440000884d3000998a300050032000800a70023
:100450000300a0008904d1000884d3008b05e800c4
:100460008904d1000884d3000001eb000281d2008e
:100470000301070001f0a1000cf0a70001f0a000ab
:10048000360137006420e100380132000801be0067
:100490000200be00f7ff37006120e10033013200a7
:1004a0006000b800f3ff37000000200001f82700cb
:1004b000f0ff37000001be002f0107000470a70005
:1004c00003f0a10003f8a30013003a006509b1008e
:1004d00010003200090035006928e10002003500f3
:1004e0000100280000000500000040008180480055
:1004f0008502e900fcff3a0000000600f88f420088
:10050000050035008100d1000080d3008502e8009d
:10051000fcff3a00000006008000eb000000050030
:1005200003f0a200889fbe008a9fbe008c1f780047
:10053000f9000700000133006450e1004f00320071
:100540006420e1005200320003826c0007003b008f
:100550000905d0000306d000820f54000c065d0090
:100560000200390002003200890178000306780099
:100570008582550004003d000003fd008103fd005d
:100580008502ea008b854200840f720002003b0066
:1005900060001000e08018006011b8000005eb005a
:1005a0007a28e1000a00390006007800c75ddd0006
:1005b000f707b200878075002d0037008281710037
:1005c0000a017800610560008180d1000080d300bd
:1005d0008502e900f9ff3b000604400087844800db
:1005e00002003b0060041400e0841c000988a300a2
:1005f000070032008a81710082817100610164000c
:100600008904d1000884d3008b05e8001700370067
:100610000978a30013003a000b00e0001300340037
:100620008b05e9000804440089844c000a447400e6
:100630000978a3000d003a000b00e0000700340029
:100640008b05e9000804440089844c0001003a004d
:100650000b0020000978a300f7ff32000001eb0037
:1006600002003700828171000a01780084000700cf
:100670000cf0a70001f0a000b80037006420e100f2
:1006800002003a00838f6c00b80033000801be00fe
:100690000200be00b10037000001be00b600070036
:1006a0000470a70003f0a1006509b1001600320034
:1006b0000d0035006828e10006003500f0ff2f002e
:1006c000f1ff27000300e00013003b0001002800b9
:1006d0000000050000004000818048008502e9001c
:1006e000fcff3a0008003700f88f420002003c008f
:1006f0008000eb00000005008100d1000080d300e5
:100700008502e800fcff3a000300e00002003b0025
:1007100060001000e080180000000600889fbe0006
:100720008a9fbe008c1f78007b0007008200330088
:1007300003866c006450e100240032006420e10074
:10074000270032006150e100220032006120e10008
:10075000210032008b854200eb07b1000134b80064
:10076000003ab8000804420089844a00013ab800ff
:100770000030b8008880400009014a0004003300be
:100780000000400081804800020149008b05e9001b
:10079000c909dd0083017000010032001300200050
:1007a000c814de004814dd004709de001200b20064
:1007b000c808de00088470003100070001f0a100c5
:1007c0000cf0a70001f0a000640037006120e100f8
:1007d000660032000801be000200be00f7ff3700cd
:1007e0006150e100fcff3a0060003700f4ff2f0089
:1007f000760037001400200074003700839f6800e3
:100800000100e00002003d0060001000e0801800e0
:100810000300e00002003d0060011100e0811900ca
:10082000050007004f00e00002003b0060001000e0
:10083000e0801800000006006022b80006022000d8
:100840000000d0008180d2000482d2008582d200d4
:100850000000a0000202520083825a0003003b0005
:100860000202420083824a000000a1000603e90060
:10087000f3ff3a0000000600040020005300370098
:1008800081002000618055000b003d000b0020001e
:1008900061fe2f000100e1001d0034008281710023
:1008a000610164008904d1000884d3000000e800dd
:1008b000faff3a007100200061006400030070003c
:1008c000020060000900320061044400e0844c0032
:1008d0000988a500050032008b05e8006808e100e2
:1008e00002003a008904d1000884d300f20f2000ee
:1008f0000258e10005003d00c75ddd00f907b200c8
:100900008980750008007800000006000bf82700b9
:100910008b007800000005000004be0016000700f0
:100920000003be000405be000200be001200070066
:10093000844f7500000006000200be006450e10014
:10094000050036006420e100020036000968a300bb
:1009500001003a000800be000160a0004f067800c8
:100960004f05be004f04be0000000600f0ff2f0040
:10097000f1ff2700f9ff3700c70ade00f107b200d8
:10098000f50fb20008003200e1cf42000200320051
:100990000170a00024000500810f700001003200ea
:1009a0000408050044000500810f700002003a00b1
:1009b000140005008502e9000000400081c04800e5
:1009c000fcff3b000170a00024000500889fbe00d2
:1009d0008a9fbe00841f7800cfff07004f00780079
:1009e00011003300f0ff2f00838f6c0006003b00e6
:1009f000040565000a00a7000800370009f0a600fa
:100a00001000200008003700820f5400838f5c0024
:100a1000030039001000200001003e00000020000b
:100a200009f0a7000000ea004f05be004f04be0019
:100a30000000e00000000600881f78008a1f780090
:100a40004400f800080f20002802880000049000ed
:100a500010059000a000900030019000c0019000af
:100a60000300ca000280ca000030cb001a00cd008b
:100a70004604c3000100ca004604c0001e04c000b2
:100a80000605c0000100cd0021009800050d78008a
:100a9000eaba9700052578004400f9004f05780070
:100aa0004f04780000000600801f780020009000ae
:100ab0000008eb004f007800801f780010009000c5
:100ac0000018eb000018eb000008eb004f00780066
:100ad000000006004400f800020f200022028800f7
:100ae000910078003000ca003080ca000000cb00be
:100af0002080ca000000cb003100cd004000ca00b9
:100b00000000cb000000cb000010cb003100cd0076
:100b10001180cc004400f900000006000200fa0039
:100b200083a4800090a48000a4a48000a552290082
:100b30006500b900000178007418b9000000410098
:100b40000400400060c07a000080fb00000f7800c5
:100b50001e0078004af9b7001e007800615629008f
:100b600000004000608f78001e0078000080fa00ce
:100b7000000006000200fa000000eb00000f780001
:100b8000e0a48000f2a4800003a58000045e290098
:100b90006600b90002004000000040000000400074
:100ba0000300400060407a000080fb00000f7800e6
:100bb0001e0078004af9b7001e0078000161290084
:100bc00000004000608f78004ad9bf00f84f500005
:100bd00018003e00400620009e0f100003003e005b
:100be00000c1b3004bf9b7003200370040062000c7
:100bf0009e0f100006003600800c20009e0f100093
:100c000003003e0080c1b3004bf9b7002900370054
:100c1000800c20009e0f100026003600d01520000a
:100c20009e0f100023003e0000c2b3004bf9b70036
:100c300020003700600920009e0f100003003e00d6
:100c400000c1b3004bf9b7001a003700600920005b
:100c50009e0f100006003600800c20009e0f100032
:100c600003003e0080c1b3004bf9b700110037000c
:100c7000800c20009e0f100006003600a00f200000
:100c80009e0f100003003e0000c2b3004bf9b700f6
:100c900008003700a00f20009e0f1000050036004e
:100ca000001920009e0f100002003e0000c3b30098
:100cb0004bf9b7001e0078000080fa000000060023
:100cc0000600fa0040479800415a21009140780000
:100cd00070c4b30080cf500080003a004e409000b6
:100ce0008080fb00600220000088b900200ab0006c
:100cf000cf80de00008fbe00c0a48000a04488002a
:100d0000d0a48000b0448800b0a480009044880043
:100d1000a0448000674060006741600061a220003d
:100d20009140780080cfb30000c0600002407000a6
:100d300026eab700b0448000634060006340600072
:100d400000404000004040000041400061a22000ff
:100d50009140780070ceb30000c060000240700087
:100d600026eab700f0458000614060006140600005
:100d70000040400000404000004040000040400073
:100d80000041400061a2200091407800f0cdb30006
:100d900000c060000240700026eab7005ec8bf00d5
:100da0000080fb004400de006140600061406000a4
:100db0000040400000404000004040000040400033
:100dc000004040000041400061a2200091407800b6
:100dd000f0cbb30000c060000240700026eab7000c
:100de000a4d5bf008080fb001e007800c40307006c
:100df00026cabf008080fb001e0078000080e8004b
:100e0000bf030700014480001e007800640040001a
:100e1000bb030700114480001e00780066004000fc
:100e2000b7030700214480001e00780068004000de
:100e3000b3030700314480001e0078006a004000c0
:100e4000af030700414480001e0078006c004000a2
:100e5000ab030700514480001e0078006e00400084
:100e6000a7030700614480001e0078007000400066
:100e7000a3030700914480001e0078007200400028
:100e80009f030700814480001e007800740040002a
:100e90009b030700c14480001e00780076004000dc
:100ea00097030700314680001e007800780040005c
:100eb00093030700b6dabf008080fb001e007800b5
:100ec0000002b0008e03070021d680001e007800cb
:100ed0004002b0008a03070092003700415a210007
:100ee0009140780000c5b30080cf50008d003a00db
:100ef0004e4090008080fb00600220000088b90016
:100f0000200ab000cf80de00008fbe0040cb800002
:100f1000f044880020a580008045880030a580002e
:100f20009045880010a580007045880080458000ad
:100f3000674060006741600071a220009140780026
:100f400080cfb30000c060000240700027eab70005
:100f500090458000634060006340600000404000b6
:100f6000004040000041400071a220009140780004
:100f700070ceb30000c060000240700027eab700e6
:100f8000f04580006140600061406000004040002a
:100f90000040400000404000004040000041400050
:100fa00071a2200091407800f0cdb30000c0600035
:100fb0000240700027eab7005ec8bf000080fb0057
:100fc0004400de006140600061406000004040007d
:100fd0000040400000404000004040000040400011
:100fe0000041400071a2200091407800f0cbb30096
:100ff00000c060000240700027eab700a4d5bf001f
:101000008080fb001e0078003d03070027cabf0058
:101010008080fb001e0078000080e8003803070095
:10102000d14480001e0078006400400034030700b3
:10103000e14480001e007800660040003003070095
:10104000f14480001e007800680040002c03070077
:10105000314480001e0078006a0040002803070029
:10106000114580001e0078006c004000240307003a
:10107000214580001e0078006e004000200307001c
:10108000314580001e007800700040001c030700fe
:10109000714580001e0078007200400018030700b0
:1010a000614580001e0078007400400014030700b2
:1010b000514580001e0078007600400010030700b4
:1010c000414680001e007800780040000c030700b5
:1010d000014680001e0078007a00400008030700e7
:1010e000114680001e0078007c00400004030700c9
:1010f000214680001e0078007e00400000030700ab
:10110000b6dabf008080fb001e0078000002b0004d
:10111000fb02070021d680001e0078004002b000cc
:10112000f70207004e4090008080fb001e00780010
:101130002002b000f20207000080fa000000060062
:101140000400fa00881f7800204798002e40900085
:101150008080fb00600220000088b900200ab000f7
:10116000000f78002e4090000084fb002102200038
:101170001e80400001002000c1020700800f5400c3
:1011800085013a00e0c4b300a4f5b7001e00780062
:1011900001002000ba020700a4f5b700a4d5bf00e3
:1011a0007cebb700415a21009140780040c5b30064
:1011b00080cf50000c003a000040eb005de8b70023
:1011c0005d28a8005da8a8000040eb005ee8b7001d
:1011d0005e28a8000040eb005fe8b7000040eb008d
:1011e00060e8b70034003700415a21009140780090
:1011f00070c4b30080cf50000d003a000040eb00f7
:101200005de8b7005d08a8005da8a8000040eb00fd
:101210005ee8b7005e48a8005e88a8000040eb00ca
:101220005fe8b7000040eb0060e8b700220037003d
:10123000415a21009140780000c5b30080cf500092
:101240000d003a000040eb005de8b7005d08a80023
:101250005da8a8000040eb005ee8b7005e68a8004b
:101260005e88a8000040eb005fe8b7000040eb009c
:1012700060e8b70010003700415a21009140780023
:10128000d0c4b30080cf50000b003a000040eb0008
:101290005de8b7005d28a8005d88a8000040eb006d
:1012a0005ee8b7005e08a8000040eb005fe8b7000a
:1012b0000040eb0060e8b7000040eb0074f9b700b5
:1012c0000040eb0075f9b7000040eb005ce8b700a8
:1012d000415a21009140780070c4b30080cf500083
:1012e0008a003a001e80e800010020006402070026
:1012f00026eab7009e0078006480400001002000cc
:101300005f020700004488009e007800668040006d
:10131000010020005a020700104488009e00780057
:10132000688040000100200055020700204488002a
:101330009e0078006a8040000100200050020700f3
:10134000304488009e0078006c804000010020003e
:101350004b020700404488009e0078006e804000e9
:101360000100200046020700504488009e007800db
:1013700070804000010020004102070060448800a6
:101380009e00780072804000010020003c020700af
:10139000904488009e007800748040000100200086
:1013a00037020700804488009e0078007680400065
:1013b0000100200032020700c04488009e0078002f
:1013c00078804000010020002d0207003046880090
:1013d000010220001e8040000100200028020700ba
:1013e000b6fab700410220001e8040000100200034
:1013f0002302070020d6880026cabf00674060008d
:101400000080fb00a044880026cabf000080fb00cb
:101410004300de00634060000080fb00b0448800b1
:1014200026cabf000080fb004500de00614060006e
:101430000080fb00f045880026cabf000080fb004a
:101440004600de00614060006141600051a2200062
:1014500091407800e0cfb30000c06000024070000f
:1014600025eab70026cabf000080fb004600de0068
:10147000614060006140600000404000004040006a
:101480000040400000414000e1852000914078008c
:10149000f0ceb30000c06000024070005ee8b7000c
:1014a0005ec8bf000080fb004400de0061406000b9
:1014b0000004a20061406000614060000040400004
:1014c000004040000040400000404000004140001b
:1014d000e185200091407800f0cdb30000c06000ad
:1014e000024070005ee8b700b0448000d0a48800dd
:1014f000a0448000c0a4880090448000b0a488006c
:101500006044800050be8800a1003700415a21008d
:101510009140780000c5b30080cf50009c003a0095
:101520001e80e80001002000d501070027eab7006f
:101530009e0078006480400001002000d001070078
:10154000d04488009e0078006680400001002000a2
:10155000cb010700e04488009e00780068804000ce
:1015600001002000c6010700f04488009e007800ba
:101570006a80400001002000c1010700004588008a
:101580009e0078006c80400001002000bc01070034
:10159000104588009e0078006e8040000100200009
:1015a000b7010700204588009e0078007080400049
:1015b00001002000b2010700304588009e0078003d
:1015c0007280400001002000ad01070070458800d6
:1015d0009e0078007480400001002000a8010700f0
:1015e000604588009e007800768040000100200061
:1015f000a3010700504588009e00780078804000d5
:10160000010020009e010700404688009e007800ef
:101610007a80400001002000990107000046880000
:101620009e0078007c8040000100200094010700ab
:10163000104688009e0078007e8040000100200057
:101640008f01070020468800010220001e80400014
:10165000010020008a010700b6fab700410220000d
:101660001e804000010020008501070020d6880070
:1016700027cabf00674060000080fb0080458800eb
:1016800027cabf000080fb004300de00634060000b
:101690000080fb009045880027cabf000080fb0047
:1016a0004500de00614060000080fb00f0458800de
:1016b00027cabf000080fb004600de0061406000da
:1016c0006141600051a2200091407800e0cfb3005a
:1016d00000c060000240700025eab70027cabf00c2
:1016e0000080fb004600de00614060006140600059
:1016f00000404000004040000040400000414000e9
:10170000e185200091407800f0ceb30000c0600079
:10171000024070005ee8b7005ec8bf000080fb00ba
:101720004400de00614060000004a20061406000ef
:101730006140600000404000004040000040400028
:101740000040400000414000e185200091407800c9
:10175000f0cdb30000c06000024070005ee8b7004a
:101760009045800030a588008045800020a5880035
:101770007045800010a588003045800040bf88007b
:101780000000eb0050bf8800f044800040cb880090
:10179000d405070010003700411f07000279290017
:1017a0008040eb0030c0b3007a2007000000eb005f
:1017b00050ad8800040037000f78070050ad80005e
:1017c0000000e80050ad880051ad80007038210065
:1017d000808f5000f8ff36004f0478000080fa0038
:1017e000000006000600fa00100798002107980084
:1017f0000080eb00000f7800a19721009140780055
:1018000080c5b30080cf50000e003a000000eb000e
:1018100080cd88001e019000ae01900000002f00d6
:10182000f1072000020040008380480090cd88002e
:10183000a1cd880032c0bf000080fb00b0cd880081
:101840004b003700a197210091407800d0c4b3002d
:1018500080cf50000e003a000000eb0080cd8800e1
:101860001e019000ae01900000012f00f107200042
:10187000020040008380480090cd8800a1cd880000
:1018800032c0bf000080fb00b0cd880038003700b8
:10189000a19721009140780040c5b30080cf50004f
:1018a0000e003a000000eb0080cd88001e01900081
:1018b000ae019000000c2f00f10720000200400054
:1018c0008380480090cd8800a1cd880032c0bf0041
:1018d0000080fb00b0cd880025003700a1972100d3
:1018e0009140780070c4b30080cf50000e003a00e1
:1018f0000000eb0080cd88001e019000ae0190003a
:1019000000002f00f1072000020040008380480003
:1019100090cd8800a1cd880032c0bf000080fb00c0
:10192000b0cd880012003700a197210091407800c7
:1019300000c5b30080cf50000d003a000000eb005e
:1019400080cd88001e019000ae019000002d2f0078
:10195000f1072000020040008380480090cd8800fd
:10196000a1cd880032c0bf000080fb00b0cd880050
:1019700090cd8000a1cd80004008de000100200055
:1019800032e0b70090cd8000a1cd80001000ba00f9
:10199000000f7800b0cd800032e0b7001e00780064
:1019a0000080fa00000006000800fa00000f78002e
:1019b00011079800a19721009140780080c5b300dd
:1019c00080cf50000e003a000000eb0080cd880070
:1019d0001e0078006101b80000002f00f107200010
:1019e000020040008380480090cd8800a1cd88008f
:1019f00032c0bf000080fb00b0cd88004b00370034
:101a0000a197210091407800d0c4b30080cf50004e
:101a10000e003a000000eb0080cd88001e00780028
:101a20006101b80000012f00f10720000200400012
:101a30008380480090cd8800a1cd880032c0bf00cf
:101a40000080fb00b0cd880038003700a19721004e
:101a50009140780040c5b30080cf50000e003a009e
:101a60000000eb0080cd88001e0078006101b80006
:101a7000000c2f00f1072000020040008380480086
:101a800090cd8800a1cd880032c0bf000080fb004f
:101a9000b0cd880025003700a19721009140780043
:101aa00070c4b30080cf50000e003a000000eb007d
:101ab00080cd88001e0078006101b80000002f0072
:101ac000f1072000020040008380480090cd88008c
:101ad000a1cd880032c0bf000080fb00b0cd8800df
:101ae00012003700a19721009140780000c5b30093
:101af00080cf50000d003a000000eb0080cd880040
:101b00001e0078006101b800002d2f00f1072000b1
:101b1000020040008380480090cd8800a1cd88005d
:101b200032c0bf000080fb00b0cd880061c7bf009d
:101b30000042b2000004e0004c003a0090cd80006a
:101b4000a1cd80004008de00010020000074a1004b
:101b500064e7b70090cd8000a1cd8000103b8800e5
:101b600061c7a800017620009140780000c8b3004a
:101b700000c0600041c4b3000140700060e7b700de
:101b800050052000303b8800a00a2000303b880030
:101b900061e7a80000000000000000002007980096
:101ba00061c7bf0001c8b300014060000004e0004d
:101bb000fbff3a001e0078000100200009ff07002b
:101bc000e10f400027003a0090cd8000a1cd8000b9
:101bd0004008de000100200032e0b70090cd800018
:101be000a1cd80001e0190000208bb0061c7a800c3
:101bf000017620009140780000c8b30000c060006a
:101c00000024a00060e7b70050052000303b8800aa
:101c1000a00a2000303b880061e7a8000000000017
:101c2000000000003007980061c7bf0001c8b30082
:101c3000014060000004e000fbff3a001e00780055
:101c400001002000e7fe0700800078001e009000e1
:101c5000808f5000050032001000200080cd8800e9
:101c6000020037002000200080cd8800b0cd800029
:101c700032e0b70080cd80000080fa00000006004e
:101c80000600fa0010079800210798000080eb007a
:101c9000000f78000000eb0080cd88001e0190004e
:101ca000ae01900000002f00f1072000020040006c
:101cb0008380480090cd8800a1cd880032c0bf004d
:101cc0000080fb00b0cd880090cd8000a1cd8000c9
:101cd0004008de000100200032e0b70090cd800017
:101ce000a1cd80001000ba00000f7800b0cd8000b8
:101cf00032e0b7001e0078000080fa000000060005
:101d00000800fa00000f7800110798000000eb00af
:101d100080cd88001e0078006101b80000002f000f
:101d2000f1072000020040008380480090cd880029
:101d3000a1cd880032c0bf000080fb00b0cd88007c
:101d400061c7bf000042b2000004e0004c003a004e
:101d500090cd8000a1cd80004008de000100200071
:101d60000074a10064e7b70090cd8000a1cd800091
:101d7000103b880061c7a8000176200091407800e0
:101d800000c8b30000c0600041c4b300014070004f
:101d900060e7b70050052000303b8800a00a200013
:101da000303b880061e7a800000000000000000050
:101db0002007980061c7bf0001c8b3000140600060
:101dc0000004e000fbff3a001e0078000100200044
:101dd00084fe0700e10f400027003a0090cd80000c
:101de000a1cd80004008de000100200032e0b700f5
:101df00090cd8000a1cd80001e0190000208bb00a4
:101e000061c7a800017620009140780000c8b300a7
:101e100000c060000024a00060e7b700500520006b
:101e2000303b8800a00a2000303b880061e7a80012
:101e300000000000000000003007980061c7bf00ec
:101e400001c8b300014060000004e000fbff3a005d
:101e50001e0078000100200062fe0700800078006c
:101e60001e009000808f50000500320010002000fe
:101e700080cd8800020037002000200080cd88003f
:101e8000b0cd800032e0b70080cd80000080fa0045
:101e9000000006000200fa0080c5b3007af9b7001e
:101ea0006000b8004ffe0700a4f5b700e00b20006b
:101eb000010020004bfe070050518800000c20005c
:101ec0000100200047fe07002ceab70050518000b7
:101ed000e10f40000400320051518000703e2000ac
:101ee000808f5000050036000000eb005051880044
:101ef00051518000e00b2000abfe0700c1a2200082
:101f000091407800c0c3b30080cf50000600360077
:101f10000040eb002ceab7002ccabf008080fb0019
:101f2000000c2000a0fe0700415a210091407800db
:101f300070c4b30080cf500098003a000000eb005e
:101f4000000f78001e80e800010020004cff070011
:101f500026eab7009e00780064804000010020005f
:101f600047ff0700004488009e007800668040001c
:101f70000100200042ff0700104488009e00780006
:101f800068804000010020003dff070020448800d9
:101f90009e0078006a8040000100200038ff0700a2
:101fa000304488009e0078006c80400001002000d2
:101fb00033ff0700404488009e0078006e80400098
:101fc000010020002eff0700504488009e0078008a
:101fd000708040000100200029ff07006044880055
:101fe0009e007800728040000100200024ff07005e
:101ff000904488009e00780074804000010020001a
:102000001fff0700804488009e0078007680400013
:10201000010020001aff0700c04488009e007800dd
:10202000788040000100200015ff0700304688003e
:10203000010220001e8040000100200010ff070068
:10204000b6fab70026cabf00674060000080fb00f8
:10205000a044880026cabf000080fb004300de00c9
:10206000634060000080fb00b044880026cabf00c7
:102070000080fb004600de006140600061416000be
:1020800051a2200091407800e0cfb30000c0600072
:102090000240700025eab70026cabf000080fb009e
:1020a0004600de006140600061406000004040008a
:1020b000004040000040400000414000e185200019
:1020c00091407800f0ceb30000c060000240700084
:1020d0005ee8b7005ec8bf000080fb004400de0081
:1020e000614060000004a200614060006140600047
:1020f00000404000004040000040400000404000e0
:1021000000414000e185200091407800f0cdb3000f
:1021100000c06000024070005ee8b70026cabf0041
:102120000080fb0010588800004480005057880051
:1021300010448000f0cd8800204480006057880063
:1021400030448000705788004044800080578800e9
:10215000504480009057880060448000a057880059
:1021600090448000c057880080448000b0578800a9
:10217000c0448000f05788003046800060568800d8
:102180006044800050be8800c044800000ce8800bb
:102190002044800060be8800e8003700415a2100da
:1021a0009140780000c5b30080cf500092003a0003
:1021b00060022000000f78001e80e800010020006f
:1021c000affe070027eab7009e0078006480400059
:1021d00001002000aafe0700d04488009e0078007d
:1021e0006680400001002000a5fe0700e044880052
:1021f0009e0078006880400001002000a0fe0700db
:10220000f04488009e0078006a80400001002000b1
:102210009bfe0700004588009e0078006c8040000f
:102220000100200096fe0700104588009e007800ff
:102230006e8040000100200091fe070020458800cc
:102240009e00780070804000010020008cfe070096
:10225000304588009e007800728040000100200018
:1022600087fe0700704588009e007800748040005b
:102270000100200082fe0700604588009e00780073
:1022800076804000010020007dfe07005045880058
:102290009e007800788040000100200078fe070052
:1022a000404688009e0078007a80400001002000af
:1022b00073fe0700004688009e0078007c80400086
:1022c000010020006efe0700104688009e00780086
:1022d0007e8040000100200069fe07002046880043
:1022e000010220001e8040000100200064fe070063
:1022f000b6fab70027cabf00674060000080fb0045
:102300008045880027cabf000080fb004300de0034
:10231000634060000080fb009045880027cabf0032
:102320000080fb004500de00614060000080fb0093
:10233000f045880027cabf000080fb004600de0091
:10234000614060006141600051a22000914078002e
:10235000e0cfb30000c060000240700025eab70083
:1023600027cabf000080fb004600de00614060001d
:1023700061406000004040000040400000404000dc
:1023800000414000e185200091407800f0ceb3008c
:1023900000c06000024070005ee8b7005ec8bf0089
:1023a0000080fb004400de00614060000004a200e9
:1023b000614060006140600000404000004040001b
:1023c000004040000040400000414000e185200006
:1023d00091407800f0cdb30000c060000240700072
:1023e0005ee8b7004046800040ce8800304580005f
:1023f00040bf880051003700415a210091407800c9
:10240000d0c4b30080cf50002c003a00c00420009c
:10241000000f78001e80e8000100200018fe070071
:10242000304388009e007800648040000100200056
:1024300013fe0700404388009e007800668040003d
:10244000010020000efe0700504388009e00780027
:10245000688040000100200009fe070060438800fa
:102460009e0078006a8040000100200004fe070002
:10247000704388009e0078006c80400001002000be
:10248000fffd0700509a880031438000800c200037
:10249000808f500002003e0010c0b30054f3b7001c
:1024a0005043800080a488006043800090a488008e
:1024b00070438000a0a4880020003700415a21000a
:1024c0009140780040c5b30080cf50001b003a0017
:1024d00020072000000f78001e80e8000100200087
:1024e000e7fd0700b04388009e007800648040004c
:1024f00001002000e2fd0700d04388009e00780024
:102500006680400001002000ddfd0700e0438800f8
:102510009e0078006880400001002000d8fd070080
:10252000f0438800d0438000e0a48800e0438000ae
:10253000f0a48800f043800000a588000080fa0025
:10254000000006000400fa005151800060d58000b0
:10255000808f50000500320051518000e00b2000b8
:1025600011fd07005051800060d588002ccabf00c3
:102570008080fb0070d58000808f50000700320003
:102580002ccabf008080fb00000c200006fd070065
:102590002ccabf000080fb0070d58800415a210082
:1025a0009140780070c4b30080cf5000bc003a0066
:1025b0006000b800008fbe00a0448000674060004b
:1025c0006741600061a220009140780080cfb30095
:1025d00000c060000240700026eab700b0448000ee
:1025e00063406000634060000040400000404000e5
:1025f0000041400061a220009140780070ceb300fd
:1026000000c060000240700026eab7005ec8bf004c
:102610000080fb004400de0061406000614060001b
:1026200000404000004040000040400000404000aa
:10263000004040000041400061a22000914078002d
:10264000f0cbb30000c060000240700026eab70083
:102650008180200091407800a4d5bf0080cf500039
:1026600006003200a4d5bf008080fb000000eb0014
:10267000a3fd0700a4d5bf0008e8b70026cabf0025
:102680008080fb0010588000808f500008003200ce
:1026900026cabf008080fb001e0078000080e80092
:1026a00097fd070026cabf000080fb001058880075
:1026b0000144800050578000808f50000600320097
:1026c000014480001e007800640040008cfd07007b
:1026d000004480005057880011448000f0cd8000f5
:1026e000808f500006003200114480001e007800e8
:1026f0006600400082fd070010448000f0cd880095
:102700002144800060578000808f50000600320016
:10271000214480001e0078006800400078fd07001a
:10272000204480006057880031448000705780004a
:10273000808f500006003200314480001e00780077
:102740006a0040006efd070030448000705788002a
:102750004144800080578000808f50000600320086
:10276000414480001e0078006c00400064fd0700ba
:10277000404480008057880051448000905780007a
:10278000808f500006003200514480001e00780007
:102790006e0040005afd07005044800090578800aa
:1027a00061448000a0578000808f500006003200f6
:1027b000614480001e0078007000400050fd07005a
:1027c00060448000a057880091448000c05780007a
:1027d000808f500006003200914480001e00780077
:1027e0007200400046fd070090448000c0578800fa
:1027f00081448000b0578000808f50000600320076
:10280000814480001e007800740040003cfd0700f9
:1028100080448000b0578800c1448000f057800099
:10282000808f500006003200c14480001e007800f6
:102830007600400032fd0700c0448000f057880059
:102840003146800060568000808f500006003200c4
:10285000314680001e0078007800400028fd070007
:102860003046800060568800b6dabf008080fb00ea
:10287000a0d58000808f500098013200b6dabf00ea
:102880008080fb001e0078000002b0001cfd0700e5
:10289000b6dabf000080fb00a0d588008f013700aa
:1028a000415a21009140780000c5b30080cf50000c
:1028b000ed003a006002200001002000008fbe0001
:1028c00080458000674060006741600071a2200081
:1028d0009140780080cfb30000c0600002407000db
:1028e00027eab700904580006340600063406000c5
:1028f00000404000004040000041400071a2200024
:102900009140780070ceb30000c0600002407000bb
:1029100027eab700f0458000614060006140600038
:1029200000404000004040000040400000404000a7
:102930000041400071a2200091407800f0cdb3002a
:1029400000c060000240700027eab7005ec8bf0008
:102950000080fb004400de006140600061406000d8
:102960000040400000404000004040000040400067
:10297000004040000041400071a2200091407800da
:10298000f0cbb30000c060000240700027eab7003f
:1029900040cb8000f0448800b0c88000e04488004c
:1029a0008180200091407800a4d5bf0080cf5000e6
:1029b00006003200a4d5bf008080fb000000eb00c1
:1029c000cffc0700a4d5bf0008e8b70027cabf00a6
:1029d0008080fb00f0588000808f5000080032009b
:1029e00027cabf008080fb001e0078000080e8003e
:1029f000c3fc070027cabf000080fb00f058880016
:102a0000d144800020588000808f500006003200a2
:102a1000d14480001e00780064004000b8fc07002c
:102a2000d044800020588800e14480003058800065
:102a3000808f500006003200e14480001e007800c4
:102a400066004000aefc0700e0448000305888007b
:102a5000f144800040588000808f50000600320012
:102a6000f14480001e00780068004000a4fc0700cc
:102a7000f044800040588800014580005058800094
:102a8000808f500006003200014580001e00780053
:102a90006a0040009afc07000045800050588800fa
:102aa0001145800060588000808f50000600320081
:102ab000114580001e0078006c00400090fc07006b
:102ac00010458000605888002145800070588000c3
:102ad000808f500006003200214580001e007800e3
:102ae0006e00400086fc070020458000705888007a
:102af0003145800080588000808f500006003200f1
:102b0000314580001e007800700040007cfc07000a
:102b1000304580008058880071458000c058800092
:102b2000808f500006003200714580001e00780042
:102b30007200400072fc070070458000c058880099
:102b400061458000b0588000808f50000600320040
:102b5000614580001e0078007400400068fc07009a
:102b600060458000b058880051458000a058800022
:102b7000808f500006003200514580001e00780012
:102b8000760040005efc070050458000a058880099
:102b90004146800040ce8000808f50000600320009
:102ba000414680001e0078007800400054fc070079
:102bb0004046800040ce88000146800060ce800004
:102bc000808f500006003200014680001e00780011
:102bd0007a0040004afc07000046800060ce880072
:102be0001146800050ce8000808f500006003200d9
:102bf000114680001e0078007c00400040fc070069
:102c00001046800050ce88002146800030ce8000e3
:102c1000808f500006003200214680001e007800a0
:102c20007e00400036fc07002046800030ce880041
:102c3000b6dabf008080fb00a0d58000808f5000f6
:102c4000a6003200b6dabf008080fb001e007800cc
:102c50000002b0002afc0700b6dabf000080fb00cb
:102c6000a0d588009d003700415a2100914078008e
:102c7000d0c4b30080cf500057003a0081802000bc
:102c800091407800a4d5bf0080cf500006003200ec
:102c9000a4d5bf008080fb000000eb0018fc0700fb
:102ca000a4d5bf0008e8b700c00420000100200040
:102cb000008fbe0080a480005043880090a4800054
:102cc00060438800a0a480007043880031438000e6
:102cd00090568000808f5000060032003143800003
:102ce0001e0078000080e80005fc070030438000eb
:102cf0009056880031438000800c2000808f500067
:102d000002003e0010c0b30054f3b70041438000fe
:102d1000a0568000808f50000600320041438000a2
:102d20001e00780064004000f5fb0700404380006f
:102d3000a056880051438000b0568000808f50001c
:102d400006003200514380001e00780066004000fb
:102d5000ebfb070050438000b056880061438000c1
:102d6000c0568000808f5000060032006143800012
:102d70001e00780068004000e1fb0700604380000f
:102d8000c056880071438000d0568000808f50006c
:102d900006003200714380001e0078006a00400087
:102da000d7fb070070438000d0568800719a8000de
:102db000509a8000808f500048003200519a800065
:102dc0001e0078006c004000cdfb0700509a800088
:102dd000709a880041003700415a210091407800e4
:102de00040c5b30080cf50003c003a0081802000f5
:102df00091407800a4d5bf0080cf5000060032007b
:102e0000a4d5bf008080fb000000eb00bcfb0700e6
:102e1000a4d5bf0008e8b70020072000010020006b
:102e2000008fbe00e0a48000d0438800f0a48000a2
:102e3000e043880000a58000f0438800b143800093
:102e400010578000808f500006003200b143800090
:102e50001e0078000080e800a9fb0700b043800056
:102e600010578800d143800030578000808f500079
:102e700006003200d14380001e007800640040004c
:102e80009ffb0700d043800030578800e14380005b
:102e900040578000808f500006003200e1438000e0
:102ea0001e0078006600400095fb0700e0438000ac
:102eb00040578800f1438000e0cd8000808f5000b3
:102ec00006003200f14380001e00780068004000d8
:102ed0008bfb0700f0438000e0cd88000080fa0003
:102ee000000006000400fa00415a210091407800d9
:102ef00000c5b30080cf50001a003200415a2100b3
:102f00009140780070c4b30080cf500015003200ab
:102f1000415a210091407800d0c4b30080cf5000c6
:102f200010003200415a21009140780040c5b300a2
:102f300080cf50000b00320000c5b300a4f5b700ed
:102f4000010520000000eb006dfb0700a4d5bf00c9
:102f500008e8b70010c0b3009af1b7008002200063
:102f600050458800415a21009140780070c4b30058
:102f700080cf5000cc003a006000b800008fbe0047
:102f800001448000c096280070089000808f500097
:102f90000500390000448000c19d2800f108900020
:102fa000810f500009003600c0962800700890007c
:102fb00000448800d14480001e0078006400400076
:102fc0004ffb0700004480005057880010448000e9
:102fd000c196280081109000810f50000500390033
:102fe00010448000c19d280081109000810f500086
:102ff00009003600c0962800001090001044880098
:10300000114480001e007800660040003cfb070071
:1030100010448000f0cd880020448000c196280034
:1030200091109000810f500005003900204480006d
:10303000c19d280091109000810f500009003600ba
:10304000c096280010109000204488002144800081
:103050001e0078006800400029fb07002044800023
:103060006057880030448000c1962800a11090006d
:10307000810f50000500390030448000c19d2800b8
:10308000a1109000810f500009003600c096280062
:103090002010900030448800314480001e007800e9
:1030a0006a00400016fb070030448000705788001b
:1030b00040448000c1962800b1109000810f50005c
:1030c0000500390040448000c19d2800b1109000e7
:1030d000810f500009003600c09628003010900083
:1030e00040448800414480001e0078006c0040008d
:1030f00003fb070040448000805788005044800054
:10310000c1962800c1109000810f500005003900c1
:1031100050448000c19d2800c1109000810f5000d4
:1031200009003600c09628004010900050448800e6
:10313000514480001e0078006e004000f0fa070045
:10314000504480009057880060448000c196280059
:10315000d1109000810f50000500390060448000bc
:10316000c19d2800d1109000810f50000900360049
:10317000c096280050109000604488006144800090
:103180001e00780070004000ddfa070060448000f7
:10319000a057880080448000c1962800f11090005c
:1031a000810f50000500390080448000c19d280037
:1031b000f1109000810f500009003600c0962800e1
:1031c0007010900080448800814480001e007800c8
:1031d00074004000cafa070080448000b05788009d
:1031e000c0448000c1962800b1189000810f5000a3
:1031f00005003900c0448000c19d2800b11890002e
:10320000810f500009003600c09628003018900049
:10321000c0448800c14480001e0078007600400051
:10322000b7fa0700c0448000f0578800304680009d
:10323000c1962800a1309000810f50000500390090
:1032400030468000c19d2800a1309000810f5000c1
:1032500008003600300220003046880031468000e9
:103260001e00780078004000a5fa07003046800074
:1032700060568800b6dabf00e14f50000a00320005
:10328000b6dabf000004e000070032000040eb00a7
:10329000b6fab700b6dabf00b7fab700b7dabf00c0
:1032a0000080fb00a0d58800415a210091407800a1
:1032b00000c5b30080cf500008013a006002200032
:1032c00001002000008fbe00d1448000c09628007d
:1032d00040189000808f500005003900d0448000d5
:1032e000c19d2800c1189000810f500009003600d0
:1032f000c096280040189000d0448800d144800037
:103300001e007800640040007dfa0700d044800071
:1033100020588800e0448000c1962800d118900011
:10332000810f500005003900e0448000c19d280055
:10333000d1189000810f500009003600c096280077
:1033400050189000e0448800e14480001e0078009e
:10335000660040006afa0700e044800030588800a8
:10336000f0448000c1962800e1189000810f5000c1
:1033700005003900f0448000c19d2800e11890004c
:10338000810f500009003600c09628006018900098
:10339000f0448800f14480001e007800680040007e
:1033a00057fa0700f044800040588800004580002c
:1033b000c1962800f1189000810f500005003900d7
:1033c00000458000c19d2800f1189000810f500039
:1033d00009003600c096280070189000004588004b
:1033e000014580001e0078006a00400044fa070092
:1033f000004580005058880010458000c196280084
:1034000081209000810f5000050039001045800098
:10341000c19d280081209000810f500009003600d6
:10342000c0962800002090001045880011458000bb
:103430001e0078006c00400031fa07001045800043
:103440006058880020458000c19628009120900097
:10345000810f50000500390020458000c19d2800e3
:1034600091209000810f500009003600c09628007e
:103470001020900020458800214580001e00780023
:103480006e0040001efa070020458000705888003a
:1034900030458000c1962800a1209000810f500087
:1034a0000500390030458000c19d2800a120900012
:1034b000810f500009003600c0962800202090009f
:1034c00030458800314580001e00780070004000c3
:1034d0000bfa070030458000805888006045800066
:1034e000c1962800d1209000810f500005003900be
:1034f00060458000c19d2800d1209000810f5000c0
:1035000009003600c09628005020900060458800d1
:10351000614580001e00780074004000f8f9070043
:1035200060458000b058880050458000c196280052
:10353000c1209000810f50000500390050458000e7
:10354000c19d2800c1209000810f50000800360066
:103550008002200050458800514580001e00780000
:1035600076004000e6f9070050458000a05888002a
:1035700040468000c1962800b1309000810f500075
:103580000500390040468000c19d2800b130900000
:10359000810f5000080036003002200040468800ad
:1035a000414680001e00780078004000d4f90700f2
:1035b0004046800040ce880000468000c19628002a
:1035c000f1289000810f500005003900004680006e
:1035d000c19d2800f1289000810f5000090036009d
:1035e000c0962800702890000046880001468000a0
:1035f0001e0078007a004000c1f9070000468000f4
:1036000060ce880010468000c1962800813090006e
:10361000810f50000500390010468000c19d280030
:1036200081309000810f50000800360020032000f8
:1036300010468800114680001e0078007c00400083
:10364000aff907001046800050ce88002046800069
:10365000c196280091309000810f5000050039007c
:1036600020468000c19d280091309000810f5000bd
:103670000c003600400620002046880021468000cd
:103680001e0078007e0040009df907002046800063
:1036900030ce8800204680000100200030b888002d
:1036a00041b88800b6dabf00e14f50000700320091
:1036b000b6dabf000004e000040032000040eb0076
:1036c000b6fab700b6dabf00b7fab700d065800027
:1036d00088f5b70088d5bf004af9b700415a2100e4
:1036e00091407800d0c4b30080cf500051003a0020
:1036f000c004200001002000008fbe003143800084
:10370000c096280020009000808f500005003900ee
:1037100030438000c19d2800a1009000810f50001f
:1037200003003600c0962800200090003043880037
:1037300040438000c1962800b1009000810f5000e6
:103740000500390040438000c19d2800b100900071
:10375000810f500003003600c09628003000900012
:103760004043880050438000c1962800c10090006b
:10377000810f50000500390050438000c19d280092
:10378000c1009000810f500003003600c096280051
:10379000400090005043880060438000c19628009c
:1037a000d1009000810f5000050039006043800077
:1037b000c19d2800d1009000810f50000300360009
:1037c000c09628005000900060438800704380003d
:1037d000c1962800e1009000810f500005003900db
:1037e00070438000c19d2800e1009000810f5000cf
:1037f00003003600c09628006000900070438800e7
:10380000519a800040062000808f50000200360050
:1038100040012000509a88005043800080a4880016
:103820006043800090a4880070438000a0a48800ba
:103830005a003700415a21009140780040c5b3003a
:1038400080cf500055003a002007200001002000e2
:10385000008fbe00b1438000c09628002008900071
:10386000808f500005003900b0438000c19d2800c2
:10387000a1089000810f500009003600c096280072
:1038800020089000b0438800b14380001e007800fb
:103890000080e8001af90700b04380001057880044
:1038a000d0438000c1962800c1089000810f5000cd
:1038b00005003900d0438000c19d2800c108900058
:1038c000810f500009003600c09628004008900083
:1038d000d0438800d14380001e007800640040007f
:1038e00007f90700d043800030578800e04380008c
:1038f000c1962800d1089000810f500005003900c2
:10390000e0438000c19d2800d1089000810f500045
:1039100009003600c096280050089000e043880057
:10392000e14380001e00780066004000f4f80700c4
:10393000e043800040578800f0438000c196280093
:10394000e1089000810f500005003900f04380002d
:10395000c19d2800e1089000810f50000900360049
:10396000c096280060089000f0438800f143800072
:103970001e00780068004000e1f80700f043800076
:10398000e0cd8800d0438000e0a48800e0438000c0
:10399000f0a48800f043800000a588000080fa00b1
:1039a000000006000000fa00f0b2800001b38000c1
:1039b00053f207000001be0000002500317c240006
:1039c0007af20700bbf2070000b7880011b7880041
:1039d00002b7800013b78000f070220001002000c1
:1039e000800f5100818f59000500360000712200c0
:1039f0000100200000b7880011b788000b003700d5
:103a000002b7800013b780000019200001002000d9
:103a1000800f5100818f590004003e0000192000e2
:103a20000100200000b7880011b7880000b78000af
:103a300011b7800080007800c0ef2f0000804000a8
:103a400020ce880021ce800040062000808f5000cc
:103a500016003e0020ce80000100200030b188001a
:103a600041b1880032b1800043b18000d001200014
:103a700001002000800f5100818f590004003e009a
:103a8000e00120000100200030b1880041b1880031
:103a9000100020000100200010b1880021b1880032
:103aa00010c0b30006f9b7000e0037004006200032
:103ab0000100200030b1880041b1880020ce800094
:103ac0006101b80030b1800041b1800000005100b8
:103ad0008180590010b1880021b188000040eb00be
:103ae00006f9b70010b1800021b180008100d1003b
:103af0000080d300a0c1880030b1800041b18000b7
:103b00008100d1000080d30090c18800a0c0800057
:103b100080c18800d0c08000b0c18800e0c08000b3
:103b2000c0c18800f0c08000d0c1880050c28000b1
:103b3000e0c1880060c28000f0c1880070c28000cf
:103b400000c2880080c2800010c28800e1c18000ed
:103b500010c2800000805000e2c580001100090002
:103b60000280d80020c28800f1c1800000c280001d
:103b700000805000f2c58000110009000280d800ca
:103b800030c288000080fa00000006004000fa0001
:103b9000889fbe000000eb00400f98000000eb0083
:103ba000300f98000000eb00200f98006000b80074
:103bb000000f9800110f980000002600a166240055
:103bc000600798007107980000002000011a240087
:103bd0004007980051079800d0cc2c00c1dc23008e
:103be00020079800310798000000200001f0230012
:103bf000008fbe0040a5800051a5800040079800be
:103c00005107980060a5800071a580000200200087
:103c100003122400e5f107002007980031079800ff
:103c200080a5800091a580000200200003122400de
:103c3000def10700008fbe000000200001f8230025
:103c4000c0a58800d1a58800e2ce8000f3ce800018
:103c5000421f9800531f98004e1a9000de1a9000e1
:103c6000e00f5200e08f5a00060035004e18900019
:103c7000de189000a2f10700601f9800711f9800e5
:103c8000140037004e199000de19900061006100a9
:103c90008000eb004e1a9000de1a90008501d100e2
:103ca0000481d300020070008380700094f107004b
:103cb000601f9800711f98006e199000fe19900007
:103cc0006e189000fe18900016f20700601f980012
:103cd000711f98006e189000fe1890006007980001
:103ce0007107980008c980006140b90084f107009d
:103cf000201f9800311f98000800e00007003d00d9
:103d000002002000037824002e189000be189000b6
:103d100004f20700201f9800311f98002e19900010
:103d2000be199000e2a58800f3a58800f8b38000d2
:103d30006140b90072f10700001f9800111f980040
:103d40000800e00007003d00020020000378240086
:103d50000e1890009e189000f2f10700001f9800c6
:103d6000111f98000e1a90009e1a900004a6880059
:103d700015a68800e0a58000f1a5800002a68000bd
:103d800013a68000e6f1070020a6880031a688006f
:103d900020a6800031a680003ff20700701798002f
:103da000fe1290000500e00003003d007e10900030
:103db0000000ea00701798007e1190006110b900b1
:103dc0004ff10700e0a68800f1a68800000025005a
:103dd0003174240040a7880051a7880044a78000c0
:103de00055a780005417980065179800f8bf800009
:103df0006140b90042f10700301798004117980060
:103e00000800e00007003d000200200003782400c5
:103e10003e109000ce109000c2f1070030179800bd
:103e2000411798003e119000ce1190005e10900056
:103e3000ee1090005df1070080a7880091a7880030
:103e400080a7800091a78000101798002117980084
:103e5000d8bf80006140b90029f10700700f9800b9
:103e6000011798000800e00007003d000200200054
:103e7000037824007e0890008e109000a9f10700be
:103e8000700f9800011798007e0990008e11900025
:103e90001e109000ae10900020f2070060a788006e
:103ea00071a7880020a6800031a6800040a6880067
:103eb00051a688008bd8bf000004e0000b003a0038
:103ec00010c0b3008bf8b7006000b80080a688006f
:103ed00091a688006000b80040a6880051a688001e
:103ee0006000b80060a6880071a6880080a68000e7
:103ef00091a680000004be0040a6800051a680006c
:103f000062a6800073a6800086f107002e01900053
:103f1000be01900001f20700c2a58000d3a5800079
:103f2000fef1070002002000030024001ff107003b
:103f30000001be000800be007af10700a0a68800bc
:103f4000b1a68800a0a68000b1a6800042a780008c
:103f500053a7800025f207000000e00001003d00ab
:103f60000500370040a7800051a78000a0a6880068
:103f7000b1a688000c003700a0a68000b1a6800082
:103f800062a7800073a780001af207000000e0001b
:103f9000010035000400370060a7800071a7800091
:103fa000a0a68800b1a6880040a6800051a6800087
:103fb0004e019000de019000d8f107000004be0021
:103fc00040a6800051a6800062a6800073a68000f3
:103fd00053f107001e01be00d0f10700c2a580000a
:103fe000d3a58000f1f007000001be000800be006c
:103ff0004cf10700a2a68000b3a6800049f107009b
:1040000020a7880031a78800a0a68000b1a6800064
:1040100080a6880091a6880040a6800051a6800056
:1040200060a6880071a6880020a7800031a78000c4
:1040300042a7800053a78000ecf107000000e000d9
:1040400001003d000500370040a7800051a7800017
:1040500020a7880031a788000c00370020a7800027
:1040600031a7800062a7800073a78000e1f10700fc
:104070000000e000010035000400370060a7800068
:1040800071a7800020a7880031a7880020a78000a2
:1040900031a7800007f10700200f98002e0890003c
:1040a0004500de00600c880020a7800031a780005a
:1040b00082a7800093a78000bcf0070076f107007c
:1040c000000f9800110f9800d0bf80006101b80068
:1040d0000e0890009e089000800f5100818f5900bb
:1040e00005003400d0bf800001002000000f9800c0
:1040f000110f98000b003700f0bf80006101b8007d
:104100000e0890009e089000800f5100818f59008a
:1041100004003d00f0bf800001002000000f980067
:10412000110f980020b0800031b08000000f98007f
:10413000110f98008e089000310f9800f2b28000a5
:1041400003b38000006a280011002000abf10700d3
:1041500020ce880028ce80006140b90068f00700ba
:10416000500f9800610f98000800e00007003d0024
:1041700002002000037824005e089000ee08900002
:10418000e8f00700500f9800610f9800020020002f
:10419000031224005e089000ee08900083f00700f0
:1041a000c4f0070010cd880021ce8000800c2000d4
:1041b000808f500020003e0021ce8000100820009b
:1041c000808f500002003e002008200020ce880092
:1041d00021ce8000c0f92f000080400020ce880052
:1041e00020ce80000100200030b1880041b188005d
:1041f00032b1800043b18000d001200001002000d6
:10420000800f5100818f590004003e00e001200022
:104210000100200030b1880041b18800100020006a
:104220000100200010b1880021b1880010c0b30047
:1042300006f9b700120037004006200001002000f8
:1042400030b1880041b1880020ce80006101b80003
:1042500030b1800041b180000001510081815900de
:10426000c0f92f00f1ff2f000200400083804800ba
:1042700010b1880021b188000040eb0006f9b700ba
:104280004ad9bf00f54f5000030032004ad9bf00a1
:10429000f44f500009003a003e089000fe0f500015
:1042a00003003e0080022000400f98000c00370001
:1042b0003e099000420f980009003700b1c7800006
:1042c0003e089000808f500003003900b3c7800083
:1042d000430f9800020037003e0a9000440f9800f8
:1042e00010b1800021b180008100d1000080d30096
:1042f000a0c1880030b1800041b180008100d100b0
:104300000080d30090c188000e08900080b788001c
:104310003e089000ef0f500002003e00f000200029
:10432000300f9800a0c0800080c18800d0c08000fd
:10433000b0c18800e0c08000c0c18800f0c080002b
:10434000d0c1880000c18000e0c1880010c1800099
:10435000f0c1880070c2800000c2880080c2800066
:1043600010c28800e1c1800010c2800000805000af
:10437000e2c58000110009000280d80020c2880038
:10438000f1c1800000c2800000805000f2c58000b2
:10439000110009000280d80030c288004f04be001e
:1043a0000080fa00000006001a00fa00881f78005a
:1043b0000000eb00200798006000b800008fbe00ee
:1043c000415a210091407800d0c4b30080cf500002
:1043d0005a003a0040062000a0a7880050002000a4
:1043e000b0a7880060002000c0a78800100020004f
:1043f000e0a7880000052000f0a78800c0c4800066
:104400000000d10000a88800f1a7800000a880006b
:104410000080500010a88800801a2600a0a88800fc
:10442000404380000000e0003f003200a0a8800070
:10443000cf80de00b2ef0700300f9800410f9800e8
:10444000384380006140b900adef0700100f9800bd
:10445000210f98000800e00007003d000200200046
:10446000037824001e089000ae0890002df007008d
:10447000100f9800210f9800484380006140b90058
:104480009fef070070079800010f98000800e000f8
:1044900007003d0002002000037824007e00900009
:1044a0008e0890001ff0070070079800010f980019
:1044b00002002000832c24007e0090008e089000d3
:1044c000baef07000001be001e089000ae08900081
:1044d00092f007000001be003e089000ce08900058
:1044e000b2ef0700008fbe00a0a88000cf80de00e2
:1044f00083ef07001e01be00bef007000000e000d1
:104500000100340004003700a0a88000cf80de0046
:104510007bef0700008fbe001e00be005ef00700ac
:10452000c0a8880002003700a0a88000c0a88800aa
:104530000000eb00b0a8880046003700415a210077
:104540009140780070c4b30080cf500021003a0041
:10455000d4d6bf000080fb00a0a78800d5d6bf003e
:104560000080fb00b0a78800d6d6bf000080fb000b
:10457000c0a7880010002000e0a788002044800029
:104580000000d100f0a78800c0c480000000d10066
:1045900000a88800f1a7800000a8800000805000db
:1045a00010a88800801a2600a0a88800a0a8800073
:1045b000421f2000110009000200d800c0a8880096
:1045c000c1a88000200320000088b900b0a888009e
:1045d00020003700415a21009140780000c5b30007
:1045e00080cf50001b003a0080072000a0a7880061
:1045f000a0002000b0a78800a0002000c0a788006d
:1046000010002000e0a7880000c980000000d10051
:10461000f0a7880060b680000000d10000a88800e4
:10462000f1a7800000a880000080500010a888003a
:10463000801a2600a0a88800a0a88000421f2000a1
:10464000110009000200d800c0a888000000eb009b
:10465000b0a8880010a8800020a8880043a8800087
:10466000b2a7800021a8800030a880000080400010
:104670000090b90080007800e0a780000088b900b1
:10468000800078004f08de00010040000080d1006b
:104690000080410050a8880051a88000a0a8800098
:1046a000808f500003003500a0a8800050a888002b
:1046b0000600370051a88000b0a88000808f50000d
:1046c00002003d00b0a8800050a88800a1a780008b
:1046d00020a880000088b90080017800c2a780006f
:1046e00021a8800030a88000008050000090b90010
:1046f000e2a78000110009000200d800808041007c
:1047000050a880000080400090a8880050a8800039
:1047100040a8880020a8800030a8880091a88000c8
:10472000b0b780000088b90090a8880091a88000e8
:10473000a0a88000808f500003003500a0a8800052
:1047400090a888000600370091a88000b0a88000db
:10475000808f500002003d00b0a8800090a8880023
:1047600090a88000c2a88000110009000200d800b3
:10477000200798002e00900000004000000040003c
:10478000300c88002e00900010c58800415a21008e
:1047900091407800d0c4b30080cf500009003a00a7
:1047a000314380002e009000808f500002003e00b8
:1047b00030438000200798002e009000d0c488006d
:1047c00058003700415a21009140780070c4b3006e
:1047d00080cf500029003a00ae009000301f20002a
:1047e000808f500002003600401f200020079800f4
:1047f00060408000ea0f50001a0034002e00900044
:10480000cf80de00beee07005007980061079800d9
:104810002e0090000000e00007003d000200200094
:10482000037824005e009000ee0090003def07004a
:10483000500798006107980042352e0013092400a4
:104840005e009000ee009000b4ef07000200200030
:104850002328240032ef070016ef0700e0bc880091
:1048600030003700604080000000e80060408800b1
:10487000200a2000e0bc88002a003700415a2100ad
:104880009140780000c5b30080cf500025003a0069
:10489000ae009000301f2000808f500003003600d3
:1048a000401f200020079800050037002e009000d0
:1048b000f40f500002003e00400120002007980045
:1048c0002e009000cf80de008dee070030079800ac
:1048d000410798002e0090000000e00007003d0016
:1048e00002002000037824003e009000ce009000db
:1048f0000cef0700300798004107980042352e0062
:10490000130924003e009000ce00900083ef0700c2
:10491000020020002328240001ef0700e5ee070035
:10492000e0bc88004f0478000080fa000000060018
:104930000000fa00889fbe0040062000e0d28800f8
:10494000a0002000f0d288005000200000d3880092
:1049500000c98000405a880060b68000505a880024
:10496000415a8000505a800000805000605a8800f0
:10497000e1d28000605a80000088b900cf80de005c
:1049800070d3880081d38800605a80006101b9002b
:1049900050d3800061d38000020040008380480033
:1049a00050d3880061d3880052d3800063d3800045
:1049b00010d3800021d38000800f5100818f5900d7
:1049c0000500350010d3800021d3800050d388002b
:1049d00061d388000b00370052d3800063d380007e
:1049e00030d3800041d38000800f5100818f590067
:1049f00004003c0030d3800041d3800050d38800b5
:104a000061d38800f0d280006103b90052d38000e6
:104a100063d380000234b80003b0b9000902780003
:104a2000000242000790b9000002420084047800ae
:104a300098d38800a9d38800615a8000705a8000fa
:104a40008080500000d380000088b900cf80de0055
:104a5000b0d38800c1d38800605a8000705a8800a3
:104a600072d3800083d3800090d38000a1d38000d4
:104a70000201400083814800b0d38000c1d3800090
:104a80000200400083804800805a8800915a8800c4
:104a900010d3800021d380000000400081804800b6
:104aa0000001be00805a8000915a8000800f5100a2
:104ab000818f590005003c0010d3800021d3800075
:104ac000805a8800915a88000e00370030d3800049
:104ad00041d3800000004000818048000001be00fa
:104ae000805a8000915a8000800f5100818f5900b8
:104af0000400350030d3800041d38000805a880004
:104b0000915a8800805a8000915a8000d2d3800048
:104b1000820178008301e900030033008180d10025
:104b20000080d300fbff3700f0d388004f04be00a5
:104b30000080fa00000006003a00fa00889fbe00dc
:104b4000f1cf800000712200808f500002003600fb
:104b500000712200f0cf8800e0cf8000000040000c
:104b60000000400080007800f0cf8000808f50006f
:104b70002700310010d0800020d0880008d08000ad
:104b80006140b900deed0700301f9800411f98001a
:104b90000800e00007003d00020020000378240028
:104ba0003e189000ce1890005eee0700301f98006f
:104bb000411f98003e189000ce189000b0d1880098
:104bc000c1d1880018d080006140b900cced070049
:104bd000101f9800211f98000800e00007003d000a
:104be00002002000037824001e189000ae189000e8
:104bf0004cee0700101f9800211f98001e1890000f
:104c0000ae189000d0d18800e1d188007300370041
:104c1000e0cf80000000400000004000f0cf88009e
:104c2000e8cf80006140b900b5ed0700701798002b
:104c3000011f98000800e00007003d00020020006e
:104c4000037824007e1090008e18900035ee070047
:104c500070179800011f98007e1090008e18900029
:104c600070d1880081d18800f8cf80006140b90000
:104c7000a3ed070050179800611798000800e000a6
:104c800007003d0002002000037824005e10900021
:104c9000ee10900023ee070050179800611798005f
:104ca0005e109000ee10900090d18800a1d1880095
:104cb00008d080006140b90091ed070030179800de
:104cc000411798000800e00007003d0002002000a6
:104cd000037824003e109000ce10900011ee0700e3
:104ce00030179800411798003e109000ce109000a9
:104cf000b0d18800c1d1880018d080006140b900cf
:104d00007fed070010179800211798000800e000b9
:104d100007003d0002002000037824001e109000d0
:104d2000ae109000ffed07001017980021179800b3
:104d30001e109000ae109000d0d18800e1d1880004
:104d4000b0d18000c1d1800072d1800083d18000b9
:104d500072ee07000004be0070d1800081d1800097
:104d600092d18000a3d18000eeed07000001be00cb
:104d70000800be008ded0700f0d0880001d188004a
:104d8000d0d18000e1d1800092d18000a3d18000f9
:104d900062ee07000004be0070d1800081d1800067
:104da00092d18000a3d18000deed07000001be009b
:104db0000800be007ded070010d1880021d18800d9
:104dc000f0d0800001d1800012d1800023d180007a
:104dd000d4ed070030ee070020d0880028d08000f6
:104de0006140b90046ed0700700f98000117980068
:104df0000800e00007003d000200200003782400c6
:104e00007e0890008e109000c6ed0700700f98008d
:104e1000011798003233230033f323007e089000fb
:104e20008e1090003dee0700500f9800610f980023
:104e300088d080006140b90031ed0700300f980044
:104e4000410f98000800e00007003d00020020002c
:104e5000037824003e089000ce089000b1ed0700d2
:104e6000300f9800410f9800a299290093e9230080
:104e70003e089000ce08900028ee07000001be001a
:104e80005e089000ee089000a6ed070089ed07008f
:104e900070d0880020d0800080d08800b0d1800001
:104ea000c1d1800083ed070030d0880000c98000a8
:104eb0006a00500060d0880061d08000b0082000f7
:104ec000808f500002003e00c008200060d08800a3
:104ed00060d080000000d10050d0880051d0800008
:104ee000b0032000808f50000500360050d08000b5
:104ef00041fc2f000100400050d088000200370024
:104f00000000eb0050d0880050d08000ee0f500021
:104f100002003e00f000200050d0880050d08000f9
:104f2000c0c28800c1c2800070022000808f500083
:104f300003003e0020032000b0c2880002003700ba
:104f4000c0c28000b0c28800b0d18000c1d1800052
:104f500002002000033a240024ee07000000e000d5
:104f600001003d000300370080112000a0c288002e
:104f700041003700b0d18000c1d180000200200084
:104f8000c338240019ee07000000e00001003d00d6
:104f900026003700b0d18000c1d18000020020007f
:104fa000c33824005eed070042ed0700d0cd880035
:104fb000e0af8000f1af800080007800d0cd8000ad
:104fc00000805000a0c28800a8c280006140b900e3
:104fd000cbec0700100f9800210f98000800e000ac
:104fe00007003d0002002000037824001e08900006
:104ff000ae0890004bed0700100f9800210f9800ad
:1050000002002000c33824001e089000ae08900063
:10501000f8ed07000000e000010034001600370042
:1050200080112000a0c2880013003700b2d1800098
:10503000c3d1800000002000c138240038ed0700f3
:105040001ced0700d0cd8800e0af8000f1af8000fc
:1050500080007800d0cd800000804000a0c2880091
:10506000a1c28000b0172000808f500002003600df
:10507000c0172000a0c28800a8c280006140b9000b
:105080009fec070070079800010f98000800e000ef
:1050900007003d0002002000037824007e009000fd
:1050a0008e0890001fed070070079800010f980010
:1050b00042352e00130924007e0090008e089000d7
:1050c00096ed0700020020002328240014ed0700bd
:1050d000f8ec070050c28800a8c280006140b90007
:1050e00087ec070050079800610798000800e0006f
:1050f00007003d0002002000037824005e009000bd
:10510000ee00900007ed0700500798006107980037
:1051100042352e00130924005e009000ee0090003e
:105120007eed07000200200023282400fcec07008d
:10513000e0ec070060c28800b8c280006140b9009e
:105140006fec070030079800410798000800e00066
:1051500007003d0002002000037824003e0090007c
:10516000ce009000efec0700300798004107980050
:1051700042352e00130924003e009000ce0090001e
:1051800066ed07000200200023282400e4ec07005d
:10519000c8ec070070c28800c8c280006140b90036
:1051a00057ec070010079800210798000800e0005e
:1051b00007003d0002002000037824001e0090003c
:1051c000ae009000d7ec0700100798002107980068
:1051d00042352e00130924001e009000ae009000fe
:1051e0004eed07000200200023282400ccec07002d
:1051f000b0ec070080c2880051c2800080c28000ed
:1052000000805000d2c08000110009000280d80048
:1052100090c28800415a21009140780000c5b30037
:1052200080cf500025003a00800c2000d0a88800d4
:1052300040002000e0a8880050002000f0a888006e
:105240001000200010a9880000c980004200de0084
:1052500020a9880070d080004200de0030a98800bc
:1052600021a9800030a980000080500040a988005a
:1052700040a98000000f78009e0078000100e00047
:1052800003003d001e0078000000ea00000f7800d7
:105290009e007800a1a98800801a2600d0a9880065
:1052a000d0a98000c2122000110009000200d8001d
:1052b000f0a988000000eb00e0a9880040a9800068
:1052c00050a9880073a98000e2a8800051a980003d
:1052d00060a98000008040000090b9008000780044
:1052e00010a980000088b900800078004f08de0017
:1052f000010040000080d1000080410080a98800aa
:1053000081a98000d0a98000808f50000300350063
:10531000d0a9800080a988000600370081a98000fc
:10532000e0a98000808f500002003d00e0a98000cd
:1053300080a98800d1a8800050a980000088b90009
:1053400080017800f2a8800051a9800060a9800047
:10535000008050000090b90012a9800011000900df
:105360000200d8008080410080a9800000804000b9
:10537000c0a9880080a9800070a9880050a9800079
:1053800060a98800c1a98000b0b780000088b9007a
:10539000c0a98800c1a98000d0a98000808f5000da
:1053a00003003500d0a98000c0a98800060037009e
:1053b000c1a98000e0a98000808f500002003d005c
:1053c000e0a98000c0a98800c0a98000f2a98000df
:1053d000110009000200d80090d08800415a210035
:1053e0009140780000c5b30080cf500027003a00fc
:1053f0003145800070022000808f50000a003e007e
:1054000090d0800080007800304580000000d100fe
:10541000808f50000b003e00304580000000d1001e
:1054200090d088000700370090d08000800078007e
:1054300030458000808f500002003e0030458000e3
:1054400090d0880091d08000b0122000808f500052
:1054500003003400c012200090d0880005003700ff
:1054600090d08000ea0f500002003c00a000200015
:1054700090d0880090d0800000cd880090d080002f
:10548000cf80de00f0b2880001b388004f04be0078
:105490000080fa00000006004600fa00881f78002d
:1054a0000000eb00100798009fdabf000004e00046
:1054b00003003a00304580001007980002003700d2
:1054c0000145800011079800e0af8000f1af800037
:1054d00030c38800f04580000000e0000f003a0073
:1054e000c0b78000e40f500008003c001e00900090
:1054f0004200de007400400050c38800c0b7800046
:105500000000e800c0b78800040037001e009000cb
:105510000000d1007400400050c38800f0458000b6
:10552000e10f50002b003a0081b580001e00900072
:10553000008040004200de003002b00080c38800de
:1055400081b580001e009000010050004200de0086
:105550006f00400070c3880070c38000f30f5000dc
:1055600002003e004001200070c3880081c380001b
:10557000a0052000808f500002003600a00520000a
:1055800080c3880081c3800070c380000080500009
:1055900052002000110009000280d800b0c388002a
:1055a00011a220009140780000c8b30000c0600044
:1055b0000004e0000300320080c3800060c3880064
:1055c0000200370070c3800060c3880060c38000a1
:1055d00050c3880050c38000f30f500002003e000b
:1055e0004001200050c3880050c380006101b80012
:1055f00000b0800011b08000800f5100818f5900f1
:105600000400310000b0800011b0800040c3880069
:105610000200370050c3800040c3880088d3bf0019
:10562000e14f500050003a002ed4bf00e14f50002f
:1056300030003a0068d4bf000080fb00b2988000c0
:105640006d00b900020040008000400040b521001c
:1056500000804000100078007e004000f0c288000a
:1056600040c380007e00400000c3880050c380001b
:105670007400400010c3880068d4bf000080fb00a5
:10568000b29880006d00b900020040008000400028
:10569000c0bb2100008040009000780030a3800053
:1056a0008081400068d4bf000080fb00b298800079
:1056b0006d00b9000200400080004000c0bb210026
:1056c00000804000100078000000d1000080410000
:1056d00001002000d0b08800e1b08800d0b0800088
:1056e000e1b080008100d1000080d300a0c088001c
:1056f0008400370000b0800011b0800000c3880033
:1057000020b0800031b0800010c38800e0af80007e
:10571000f1af8000f0c2880068d4bf000080fb00b9
:10572000b29880006d00b900020040008000400087
:10573000c0bb2100008040009000780030a38000b2
:105740000080400001002000d0b08800e1b0880057
:10575000d0b08000e1b080008100d1000080d30093
:10576000a0c088006700370038c380006140b900de
:10577000e3ea070010279800212798000800e000be
:1057800007003d0002002000037824001e20900046
:10579000ae20900063eb07001027980021279800a7
:1057a00042352e00130924001e209000ae209000e8
:1057b000daeb0700020020002328240058eb070042
:1057c0003ceb0700e0c2880038c380006140b900ac
:1057d000cbea0700701f9800012798000800e0003e
:1057e00007003d0002002000037824007e1890008e
:1057f0008e2090004beb0700701f98000127980047
:1058000042352e00130924007e1890008e2090004f
:10581000c2eb0700020020002328240040eb070011
:1058200024eb0700f0c2880048c380006140b90043
:10583000b3ea0700501f9800611f98000800e000bd
:1058400007003d0002002000037824005e1890004d
:10585000ee18900033eb0700501f9800611f98006e
:1058600042352e00130924005e189000ee189000b7
:10587000aaeb0700020020002328240028eb0700e1
:105880000ceb070000c3880058c380006140b900da
:105890009bea0700301f9800411f98000800e000b5
:1058a00007003d0002002000037824003e1890000d
:1058b000ce1890001beb0700301f9800411f980086
:1058c00042352e00130924003e189000ce18900097
:1058d00092eb0700020020002328240010eb0700b1
:1058e000f4ea070010c38800e1c2800010c3800002
:1058f00000805000d2c08000110009000280d80052
:1059000020c388005145800070022000808f500025
:10591000090036005045800000017800f0b2800098
:1059200001b380008000410080fd2f000080400016
:1059300080b98800140037005145800080022000a3
:10594000010050006101b800f0b2800001b3800096
:10595000800f5100818f590009003d00f0b2800096
:1059600001b38000800078005045800080804000b6
:1059700080fd2f000080400080b9880002003700c1
:10598000a000200080b9880021cabf000042b200f8
:105990000004e000070032004146800080b980002a
:1059a0000088b90042062000110009000280d800da
:1059b00080b9880068d280006140b90050ea0700d1
:1059c000101f9800211f98000800e00007003d000c
:1059d00002002000037824001e189000ae189000ea
:1059e000d0ea0700101f9800211f98001e18900091
:1059f000ae189000f0d1880001d28800f0d180006c
:105a000001d2800002002000c33d240077eb070094
:105a10000000e00001003c0004003700000020000e
:105a2000c13d2400f0d1880001d28800b0d28000ae
:105a3000c1d2800002002000030a2400b8ea070057
:105a4000f2d1800003d2800068eb07000000e00084
:105a500001003c004f00370088b980006140b90068
:105a600027ea070070179800011f98000800e0005f
:105a700007003d0002002000037824007e10900003
:105a80008e189000a7ea070070179800011f980071
:105a9000b0d28000c1d28000f2d1800003d2800059
:105aa0009fea0700b2d28000c3d280003fea07001d
:105ab0000001be007e1090008e18900017eb0700ca
:105ac00050d1880061d1880088b980006140b90058
:105ad0000bea070050179800611798000800e000d3
:105ae00007003d0002002000037824005e109000b3
:105af000ee1090008bea070050179800611798008d
:105b000050d1800061d18000d2cc2c00c3e42300ae
:105b100002eb07000001be005e109000ee10900046
:105b200080ea07003017980041179800589e8000bf
:105b30006140b900f2e9070010179800211798009a
:105b40000800e00007003d00020020000378240068
:105b50001e109000ae10900072ea07001017980017
:105b600021179800d2cc2c00c3f423001e10900003
:105b7000ae109000e9ea07000001be003e10900060
:105b8000ce10900067ea070030d1880041d188002c
:105b9000b5003700b0d28000c1d2800002002000e2
:105ba000030a24005eea0700f2d1800003d28000dd
:105bb0000042eb00146798000eeb07000000e000c5
:105bc000010034000200370010c0b30010679800d5
:105bd0001e6090000004a2000004e00049003a00aa
:105be000b0d28000c1d2800002002000030a24004d
:105bf0004cea0700f2d1800003d280000042eb00a3
:105c000004679800f9ea07000000e00001003d0089
:105c10000200370010c0b300006798000e609000cb
:105c20000004a2000004e00036003a006000b80062
:105c300050d1880061d1880088b980006140b900e6
:105c4000afe90700600f9800710f98000800e000ae
:105c500007003d0002002000037824006e08900039
:105c6000fe0890002fea0700600f9800710f98005f
:105c700050d1800061d18000d2cc2c00c3e42b0035
:105c8000a6ea07000001be006e089000fe08900022
:105c900024ea0700400f9800510f9800589e80009a
:105ca0006140b90096e90700200f9800310f980075
:105cb0000800e00007003d000200200003782400f7
:105cc0002e089000be08900016ea0700200f9800ea
